S01A000046656C696369746172655F4372616369756E2E73726563EE
S11300000C9484000C9496000C9496000C94960026
S11300100C942D010C9496000C9496000C9496006C
S11300200C9496000C9496000C9496000C949600F4
S11300300C9496000C9496000C9496000C949600E4
S11300400C9496000C9496000C9496000C949600D4
S11300500C949600A500A900AD00B100B500B9004C
S1130060BD00C100C500C900DC00DC00DC00DC0010
S1130070DC00DC00DC00DC00DC00DC00DC00DC009C
S1130080DC00DC00DC00DC00DC00DC00DC00DC008C
S1130090DC00DC00DC00DC00DC00DC00DC00DC007C
S11300A0DC00DC00DC00DC00DC00DC00DC00DC006C
S11300B0DC00DC00DC00DC00DC00DC00DC00DC005C
S11300C0DC00DC00DC00DC00DC00DC00DC00DC004C
S11300D0DC00DC00DC00DC00DC00DC00DC00DC003C
S11300E0DC00DC00CD00DC00D500DC00DC00DC0042
S11300F0DC00D100DC00DC00DC00DC00DC00DC0027
S1130100DC00DC00DC00D90011241FBECFE5D8E000
S1130110DEBFCDBF20E0A0E6B0E001C01D92AE3747
S1130120B207E1F70E9411030C9450030C940000F1
S113013090EF9BBB15BA462F50E04A355105E0F5C8
S1130140FA01E65DFF4F0C94360395B39F6395BBAC
S113015033C095B3966095BB2FC095B39B6595BB93
S11301602BC095B39F6495BB27C095B3966695BB8A
S113017023C095B39D6695BB1FC095B39D6795BB82
S11301801BC095B3976095BB17C095B39F6795BB8C
S113019013C095B3976695BB0FC095B3966795BB8F
S11301A00BC095B39F6395BB07C095B39E6095BB89
S11301B003C095B39E6695BB823069F018F4813014
S11301C031F00895833059F0843069F008958BB389
S11301D081608BBB08958BB382608BBB08958BB316
S11301E084608BBB08958BB388608BBB089587B103
S11301F0806487B986B1876886B9089597B1907C81
S113020097B997B1892B87B986B1806486B9369935
S1130210FECF84B190E090937B0080937A0025B167
S113022030E030937D0020937C00322F2227822BF4
S1130230932B089583B78B6E83BF8CB784658CBF73
S113024087B3886087BB089585B58C6085BD8DE7CD
S113025083BD89B7806889BF08951F920F920FB636
S11302600F9211242F933F934F935F936F937F9338
S11302708F939F93AF93BF93CF93DF93EF93FF93AA
S113028086B3807890E00097D1F02091600030919F
S11302906100232BA1F4209162003091630023308C
S11302A031053CF021E030E030936300209362009C
S11302B006C02F5F3F4F30936300209362009093FA
S11302C061008093600080916200909163000197C7
S11302D009F06CC0C0917800D09179002196D09338
S11302E07900C093780086E090E00E94FE00BC0193
S11302F0CE010E942203892B61F580916C009091BC
S11303006D008330910529F4019690936D008093DC
S11303106C0020916C0030916D0027303105A4F4FD
S113032032B381E090E002C0880F991F2A95E2F76A
S1130330832B82BB80916C0090916D000196909309
S11303406D0080936C0005C012BA10926D0010927B
S11303506C008091720090917300019690937300E9
S1130360809372008230910579F01CF4019739F082
S11303701DC08330910569F0049781F017C068E4CB
S113038081E00E94980012C06FE482E00E9498000D
S11303900DC068E483E00E94980008C06FE484E024
S11303A00E94980010927300109272008091620073
S11303B090916300029709F082C0C0917600D091B9
S11303C077002196D0937700C093760086E090E082
S11303D00E94FE00BC01CE010E942203892B09F079
S11303E04BC08091680090916900009719F592B311
S11303F081E0892782BB92B384E0892782BB92B3D0
S113040080E2892782BB80916A0090916B000196FB
S113041090936B0080936A00049774F110926B00C0
S113042010926A0081E090E09093690080936800E4
S113043012BA22C0019701F592B382E0892782BBE8
S113044092B380E1892782BB92B380E4892782BB7F
S113045080916A0090916B00019690936B00809359
S11304606A0004974CF010926B0010926A0010928C
S113047069001092680012BA809170009091710026
S1130480019690937100809370008330910551F030
S11304908430910561F0029791F46AE482E00E944D
S11304A098000DC06FE483E00E94980008C069E5DD
S11304B084E00E9498001092710010927000809164
S11304C0620090916300039709F098C0C091740092
S11304D0D09175002196D0937500C093740086E086
S11304E090E00E94FE00BC01CE010E942203892BF1
S11304F009F057C08091660090916700019771F5EB
S113050022B381E090E00090640002C0880F991F3C
S11305100A94E2F7822B82BB80916400909165007B
S1130520019690936500809364008330910529F4CB
S1130530019690936500809364008091640090918B
S11305406500089774F186E090E0909365008093CD
S11305506400109267001092660023C022B381E009
S113056090E00090640002C0880F991F0A94E2F79B
S11305708095822382BB80916400909165000197ED
S1130580909365008093640099235CF41092650055
S11305901092640081E090E090936700809366007D
S11305A012BA80916E0090916F00019690936F0043
S11305B080936E008230910579F01CF4019739F034
S11305C01DC08330910569F0049781F017C062E083
S11305D081E00E94980012C060E082E00E949800CE
S11305E00DC062E083E00E94980008C065E084E0EA
S11305F00E94980010926F0010926E00FF91EF918C
S1130600DF91CF91BF91AF919F918F917F916F9126
S11306105F914F913F912F910F900FBE0F901F90BC
S113062018958FE781BB80E882BB87B3876087BB5F
S11306300E941A010E9424010E94F7008FB780686B
S11306408FBFFFCF97FB072E16F4009407D077FDDA
S113065009D00E943C0307FC05D03EF49095819597
S11306609F4F0895709561957F4F0895EE0FFF1F7A
S11306700590F491E02D0994AA1BBB1B51E107C01E
S1130680AA1FBB1FA617B70710F0A61BB70B881F1E
S1130690991F5A95A9F780959095BC01CD010895AD
S10706A0F894FFCFF8
S9030000FC
